:10000000F5EF00F00000000000EF00F0000000003D
:0A0010000000000000000000F3D71C
:06001C00000000001200CC
:100022000F0E0C6E470E0D6E0D2EFED70C2EFCD74A
:06003200000000001200B6
:0A003800210E0D6E0D2EFED71200F2
:1000420036BE02D08A9601D08A8636BC02D08A9405
:1000520001D08A8436BA02D08A9201D08A8236B816
:1000620002D08A9001D08A802AB002D08A8801D038
:100072008A988A8AD2DF8A9A36B602D08A9601D0C4
:100082008A8636B402D08A9401D08A8436B202D0EB
:100092008A9201D08A8236B002D08A9001D08A80B8
:1000A2002AB002D08A8801D08A988A8AB6DF8A9AD0
:0C00B2002AA002D0B5DF01D0BEDF120092
:0C00BE002A9035C036F0BEDF2A80120008
:1000CA000900F5CFE6FF0006FBE10106F9E112009F
:1000DA00939A939893909392939493968A9A8A98E0
:1000EA008A968A948A928A9097DF96DF95DF8A8227
:1000FA008A808A8A8EDF8A9A8FDF8A8A8ADF8A9A38
:10010A008BDF8A8A86DF8A9A87DF8A908A8A81DFEA
:10011A008A9A82DF8A8A7DDF8A9A8A928A868A8A7C
:10012A0078DF8A9A79DF8A968A808A8A72DF8A9A3F
:10013A008A908A8A6EDF8A9A6FDF8A8A6ADF8A9A47
:10014A008A808A8A66DF8A9A67DF8A908A8A61DF6A
:10015A008A9A8A868A848A828A808A8A5ADF8A9ACC
:06016A005BDF2A80120099
:100170000FD0800E306E19D0C00E306E16D0940E97
:10018000306E13D0D40E306E10D0800E306E0DD085
:100190003050010AEEE03050020AEEE03050030A1F
:1001A000EEE03050040AEEE0F0D73104006E30503B
:1001B000002600C030F000C036F043DF2A90346AD9
:1001C00034503224E96E000E3320EA6EEE520BE01A
:1001D00034503224E96E000E3320EA6EEECF35F053
:0A01E0006EDF342AEDD72A801200EA
:1001EA0088EC01F02B6A2C6A2D6A2E6A2F6AFF0EA0
:1001FA00946EE60E0F013A6FEF0E926E956A968430
:10020A0048854897080E526F0F0E546F060E516FAD
:10021A0096945EDF010E366E0FDF0C0E366E0CDF23
:10022A00010E306E010E316E1C0E326E000E336EF0
:10023A009ADF2C50000A23E182A021D02B520EE033
:10024A002B6A89982D6A8C6A010E306E010E316E06
:10025A00230E326E000E336E86DF0ED0010E2B6E29
:10026A008988010E2D6E010E306E010E316E150E4B
:10027A00326E000E336E77DF010E2C6E05D02C50D5
:10028A00010A02E182A02C6A2B522EE02E50000AAB
:10029A0009E182A607D0080E2D5CD8A02D2A010EEE
:1002AA002E6E05D02E50010A02E182A62E6A2F5028
:1002BA00000A09E182A807D02D500108D8A02D060E
:1002CA00010E2F6E05D02F50010A02E182A82F6A73
:1002DA002DC001F0010E006E015004E000360090BE
:1002EA00FF0FFBD700048C6E2DC055FFA2D7FFD796
:1003100010EE15F0150E006E010E016EFA0EF66E5F
:0E032000020EF76E000EF86E65EC00F0120093
:0702FA0041434345534F004F
:070301005350454E544F001C
:070308005350454E544F0015
:020000040030CA
:0D000100231F3CFFBF81FF0FC00FE00F4029
:00000001FF
