:040000001EEF02F0FD
:100008009EAC05D0C4CF21F0010E1F6E9E9CF2A4B9
:0E00180005D0200E1D26000E1E22F2941100AF
:06002600000000001200C2
:10002C000F0E0C6E470E0D6E0D2EFED70C2EFCD740
:06003C00000000001200AC
:0A004200210E0D6E0D2EFED71200E8
:10004C00086A096A100E0C6E013408360936045021
:10005C00085E0550D8A0053C095ED8B007D0045006
:10006C0008260550D8B0053C0926D8900036013634
:06007C000C2EEAD7120071
:1000820054BE02D08A9601D08A8654BC02D08A9489
:1000920001D08A8454BA02D08A9201D08A8254B89A
:1000A20002D08A9001D08A8020B002D08A8801D002
:1000B2008A988A8AB7DF8A9A54B602D08A9601D081
:1000C2008A8654B402D08A9401D08A8454B202D06F
:1000D2008A9201D08A8254B002D08A9001D08A805A
:1000E20020B002D08A8801D08A988A8A9BDF8A9AB5
:0C00F20020A002D09ADF01D0A3DF120092
:1000FE00516A050E515C0AE251504F24E16E000E1A
:10010E005020E26E200EE66E512AF3D751504F2446
:10011E00E16E000E5020E26EE66A510651504F24F9
:10012E00526E000E5020536E0A0E046E000E056EB7
:10013E004DC000F04EC001F082DF08C000F009C0D3
:10014E0001F0300E002652C0E1FF53C0E2FF00C0A6
:10015E00E6FF0A0E046E000E056E4DC000F04EC096
:10016E0001F06DDF00C04DF001C04EF0000E011821
:10017E0002E1000E001801E102D05106CFD71200A5
:0C018E0020904DC054F076DF208012005D
:10019A00496A4A6A43C04BF044C04CF0800E441886
:1001AA00006E800E005C02E1000E435C0BE2010E61
:1001BA00496E000E4A6E435000084B6E44C04CF024
:1001CA00000E4C564BC04DF04CC04EF045C04FF09F
:1001DA0046C050F08FDF060E476E000E486E000EC6
:1001EA00006E4850005C02E14750000819E247508F
:1001FA004524E16E48504620E26E010E475C006ECF
:10020A00000E4858016E00504524E96E0150462000
:10021A00EA6EEECFE6FF010E475E000E485ADFD7C0
:10022A0045C0E1FF46C0E2FF200EE66E49504A1083
:10023A001AE0476A486A47504524E96E4850462002
:10024A00EA6EEE50200A03E1474A482AF4D7010E23
:10025A00475E000E485A47504524E16E48504620F2
:08026A00E26E2D0EE66E12009B
:100272000900F5CFE6FF0006FBE10106F9E11200F5
:10028200939A939893909392939493968A9A8A9836
:100292008A968A948A928A90C8DEC7DEC6DE8A82ED
:1002A2008A808A8ABFDE8A9AC0DE8A8ABBDE8A9AFE
:1002B200BCDE8A8AB7DE8A9AB8DE8A908A8AB2DE81
:1002C2008A9AB3DE8A8AAEDE8A9A8A928A868A8A73
:1002D200A9DE8A9AAADE8A968A808A8AA3DE8A9A06
:1002E2008A908A8A9FDE8A9AA0DE8A8A9BDE8A9A0E
:1002F2008A808A8A97DE8A9A98DE8A908A8A92DE31
:100302008A9A8A868A848A828A808A8A8BDE8A9AF2
:060312008CDE20801200C9
:100318000FD0800E436E19D0C00E436E16D0940EC7
:10032800436E13D0D40E436E10D0800E436E0DD0A2
:100338004350010AEEE04350020AEEE04350030A3C
:10034800EEE04350040AEEE0F0D74404006E435058
:10035800002600C043F000C054F08FDE2090476AAA
:1003680047504524E96E000E4620EA6EEE520BE037
:1003780047504524E96E000E4620EA6EEECF4DF058
:0A03880002DF472AEDD720801200A3
:1003920043C004F044C005F004C0E9FF05C0EAFF11
:1003A200EE5203E0044A052AF7D704C002F005C062
:1003B20003F0044A052A45C000F046C001F0454A50
:1003C200462A00C0E9FF01C0EAFF02C0E1FF03C004
:1003D200E2FFEECFE6FF02C0E9FF03C0EAFFEE5202
:0E03E20001E0E3D743C000F044C001F0120078
:1003F00043C004F044C005F004C002F005C003F09F
:10040000044A052A45C000F046C001F0454A462A84
:1004100000C0E9FF01C0EAFF02C0E1FF03C0E2FF44
:10042000EECFE6FF02C0E9FF03C0EAFFEE5201E0B3
:0C043000E3D743C000F044C001F012000C
:10043C00200E156E2B0E166E200E176E186A200EDF
:10044C00196E3D0E1A6E200E1B6E1C6A1D6A1E6AFA
:10045C001F6A3A6A3B6A3C6A3D6A3E6A3F6A406A76
:10046C00416A426AFF0E926EFF0E0F01386F946A5A
:10047C00FF0E3A6FFF0E956E3B6B010EC26E210E96
:10048C00C06EE00EF26E9D8C9E9CC70ED56EF3DE98
:10049C00010E546EF0DD0C0E546EEDDDC2828B6AD3
:1004AC00426A080E425C6AE23A0EE96E000EEA6E8F
:1004BC004250E926D8B0EA2AEE50000A30E142C098
:1004CC0000F0010E036E000E046E005005E00336C2
:1004DC0003900436FF0FFAD703508314016E000EFD
:1004EC000414026E0250041802E10350011817E1C3
:1004FC0042C001F0010E006E015004E00036009085
:10050C00FF0FFBD700508B1A3A0EE16E000EE26E15
:10051C004250E126D8B0E22A010EE66E2DD03A0EFA
:10052C00E96E000EEA6E4250E926D8B0EA2AEE5087
:10053C00010A22E142C002F0010E006E000E016EB3
:10054C00025005E0003600900136FF0FFAD700503C
:10055C008314026E000E0114036E000E031802E1E8
:10056C00000E021809E13A0EE16E000EE26E4250E6
:10057C00E126D8B0E22AE66A422A93D7010E1E5C25
:10058C0002E1F40E1D5C08E31F5206E01F6AF40E34
:10059C001D5E010E1E5AC28221C043F0000E446E35
:1005AC00220E456E000E466EF2DD25C022F026C0EE
:1005BC0023F027C024F0256A290E436E000E446EEA
:1005CC00220E456E000E466E0DDF290E436E000E98
:1005DC00446E150E456E000E466ED5DE8BCF43F085
:1005EC00000E446E220E456E000E466ED0DD25C008
:1005FC0022F026C023F027C024F0256A290E436E72
:10060C00000E446E220E456E000E466EBCDE290EA8
:10061C00436E000E446E190E456E000E466EB3DE30
:10062C008B502124436E446A000E4422220E456EE8
:10063C00000E466EACDD200E226E25C023F026C0C7
:10064C0024F027C025F0266A290E436E000E446E56
:10065C00220E456E000E466E96DE010E436E010EA6
:10066C00446E290E456E000E466E50DE19D7FFD72C
:020000040030CA
:0D000100231F3CFFBF81FF0FC00FE00F4029
:00000001FF
