:04000000F1EF01F02B
:10000800F2A405D0200E1E26000E1F22F294110025
:06001800000000001200D0
:10001E000F0E0C6E470E0D6E0D2EFED70C2EFCD74E
:06002E00000000001200BA
:0A003400210E0D6E0D2EFED71200F6
:10003E00086A096A100E0C6E01340836093604502F
:10004E00085E0550D8A0053C095ED8B007D0045014
:10005E0008260550D8B0053C0926D8900036013642
:06006E000C2EEAD712007F
:1000740055BE02D08A9601D08A8655BC02D08A9495
:1000840001D08A8455BA02D08A9201D08A8255B8A6
:1000940002D08A9001D08A8029B002D08A8801D007
:1000A4008A988A8AB7DF8A9A55B602D08A9601D08E
:1000B4008A8655B402D08A9401D08A8455B202D07B
:1000C4008A9201D08A8255B002D08A9001D08A8067
:1000D40029B002D08A8801D08A988A8A9BDF8A9ABA
:0C00E40029A002D09ADF01D0A3DF120097
:0C00F00029904EC055F0BEDF29801200A0
:1000FC00526A050E525C0AE252505024E16E000E18
:10010C005120E26E200EE66E522AF3D75250502444
:10011C00E16E000E5120E26EE66A520652505024F7
:10012C00536E000E5120546E0A0E046E000E056EB6
:10013C004EC000F04FC001F07CDF08C000F009C0D9
:10014C0001F0300E002653C0E1FF54C0E2FF00C0A6
:10015C00E6FF0A0E046E000E056E4EC000F04FC096
:10016C0001F067DF00C04EF001C04FF0000E011827
:10017C0002E1000E001801E102D05206CFD71200A6
:10018C000900F5CFE6FF0006FBE10106F9E11200DC
:10019C00939A939893909392939493968A9A8A981D
:1001AC008A968A948A928A9034DF33DF32DF8A828D
:1001BC008A808A8A2BDF8A9A2CDF8A8A27DF8A9A9E
:1001CC0028DF8A8A23DF8A9A24DF8A908A8A1EDFB4
:1001DC008A9A1FDF8A8A1ADF8A9A8A928A868A8A80
:1001EC0015DF8A9A16DF8A968A808A8A0FDF8A9AA6
:1001FC008A908A8A0BDF8A9A0CDF8A8A07DF8A9AAE
:10020C008A808A8A03DF8A9A04DF8A908A8AFEDED1
:10021C008A9A8A868A848A828A808A8AF7DE8A9A6D
:06022C00F8DE298012003B
:100232004A6A4B6A44C04CF045C04DF0800E4518E6
:10024200006E800E005C02E1000E445C0BE2010EC7
:100252004A6E000E4B6E445000084C6E45C04DF085
:10026200000E4D564CC04EF04DC04FF046C050F0FF
:1002720047C051F042DF060E486E000E496E000E76
:10028200006E4950005C02E14850000819E24850F3
:100292004624E16E49504720E26E010E485C006E32
:1002A200000E4958016E00504624E96E0150472065
:1002B200EA6EEECFE6FF010E485E000E495ADFD726
:1002C20046C0E1FF47C0E2FF200EE66E4A504B10E7
:1002D2001AE0486A496A48504624E96E4950472064
:1002E200EA6EEE50200A03E1484A492AF4D7010E89
:1002F200485E000E495A48504624E16E4950472054
:08030200E26E2D0EE66E120002
:10030A000FD0800E446E19D0C00E446E16D0940ED3
:10031A00446E13D0D40E446E10D0800E446E0DD0AD
:10032A004450010AEEE04450020AEEE04450030A47
:10033A00EEE04450040AEEE0F0D74504006E445063
:10034A00002600C044F000C055F08FDE2990486AAC
:10035A0048504624E96E000E4720EA6EEE520BE042
:10036A0048504624E96E000E4720EA6EEECF4EF062
:0A037A00BADE482AEDD729801200F0
:1003840044C004F045C005F004C0E9FF05C0EAFF1D
:10039400EE5203E0044A052AF7D704C002F005C070
:1003A40003F0044A052A46C000F047C001F0464A5B
:1003B400472A00C0E9FF01C0EAFF02C0E1FF03C011
:1003C400E2FFEECFE6FF02C0E9FF03C0EAFFEE5210
:0E03D40001E0E3D744C000F045C001F0120084
:1003E200DAEC02F01E0E396E3A6A3B6A3C6A3D6AEA
:1003F2003E6A3F6A406A416A426A436A956A9694D3
:10040200FF0E926EF00E0F01386FA00EF26E470EC5
:10041200D56EC3DE010E556E2CDE0C0E556E29DE36
:1004220039C044F0000E456E2A0E466E000E476E2D
:10043200FFDE2A0E446E000E456E150E466E000E4D
:10044200476E9FDF010E446E010E456E2A0E466E08
:10045200000E476E59DF000E3B1802E1000E3A18FB
:100462000CE180A00AD0D58E010E426E000E436EC2
:10047200010E3A6E000E3B6E0AD0000E3B1802E1EE
:10048200010E3A1804E180B002D03A6A3B6A000ECB
:100492003D1802E1000E3C180CE180A20AD0D59E64
:1004A2001E6A1F6A426A436A010E3C6E000E3D6E6E
:1004B2000AD0000E3D1802E1010E3C1804E180B2A0
:1004C20002D03C6A3D6A000E3F1802E1000E3E185F
:1004D2000CE180A40AD0FA0E395C02E2050E39263C
:1004E200010E3E6E000E3F6E0AD0000E3F1802E172
:1004F200010E3E1804E180B402D03E6A3F6A000E4B
:10050200411802E1000E40180CE180A60AD03950D1
:10051200000802E2050E395E010E406E000E416EC9
:100522000AD0000E411802E1010E401804E180B623
:1005320002D0406A416A030E1F5C02E1E80E1E5CB3
:1005420011E33950000804E242504310D8A439069E
:100552003950000AD8B48D8439C08CFFE80E1E5E73
:10056200030E1F5A39C044F0000E456E2A0E466E25
:10057200000E476E5DDE2A0E446E000E456E200EA2
:10058200466E000E476EFDDE010E446E010E456E94
:0E0592002A0E466E000E476EB7DE5DD7FFD70D
:1005B40010EE15F0140E006E010E016EA00EF66E14
:0E05C400050EF76E000EF86EC6EC00F0120089
:0905A000207365636F6E6469004D
:0205A900000050
:0905AB00207365636F6E64690042
:020000040030CA
:0D000100231F3CFFBF81FF0FC00FE00F4029
:00000001FF
