:10000000C4EF01F00000000000EF00F0000000006D
:0A0010000000000000000000F3D71C
:10001C000F0E0C6E470E0D6E0D2EFED70C2EFCD750
:06002C00000000001200BC
:0A003200210E0D6E0D2EFED71200F8
:06003C00000000001200AC
:1000420048BE02D08A9601D08A8648BC02D08A94E1
:1000520001D08A8448BA02D08A9201D08A8248B8F2
:1000620002D08A9001D08A802AB002D08A8801D038
:100072008A988A8AE2DF8A9A48B602D08A9601D0A2
:100082008A8648B402D08A9401D08A8448B202D0C7
:100092008A9201D08A8248B002D08A9001D08A80A6
:1000A2002AB002D08A8801D08A988A8AC6DF8A9AC0
:0C00B2002AA002D0B2DF01D0BBDF120098
:1000BE00086A096A100E0C6E0134083609360450AF
:1000CE00085E0550D8A0053C095ED8B007D0045094
:1000DE0008260550D8B0053C0926D89000360136C2
:0600EE000C2EEAD71200FF
:1000F400456A050E455C0AE245504324E16E000E54
:100104004420E26E200EE66E452AF3D74550432480
:10011400E16E000E4420E26EE66A45064550432433
:10012400466E000E4420476E0A0E046E000E056EE5
:1001340041C000F042C001F0C0DF08C000F009C0B7
:1001440001F0300E002646C0E1FF47C0E2FF00C0C8
:10015400E6FF0A0E046E000E056E41C000F042C0B8
:1001640001F0ABDF00C041F001C042F0000E011805
:1001740002E1000E001801E102D04506CFD71200BB
:0C0184002A9041C048F05BDF2A80120086
:10019000939A939893909392939493968A9A8A9829
:1001A0008A968A948A928A9039DF38DF37DF8A828A
:1001B0008A808A8A43DF8A9A31DF8A8A3FDF8A9A75
:1001C0002DDF8A8A3BDF8A9A29DF8A908A8A36DF86
:1001D0008A9A24DF8A8A32DF8A9A8A928A868A8A6F
:1001E0002DDF8A9A1BDF8A968A808A8A27DF8A9A7D
:1001F0008A908A8A23DF8A9A11DF8A8A1FDF8A9A85
:100200008A808A8A1BDF8A9A09DF8A908A8A16DFA7
:100210008A9A8A868A848A828A808A8A0FDF8A9A60
:06022000FDDE2A80120041
:100226000900F5CFE6FF0006FBE10106F9E1120041
:100236003D6A3E6A37C03FF038C040F0800E38183D
:10024600006E800E005C02E1000E375C0BE2010ED0
:100256003D6E000E3E6E375000083F6E38C040F0CF
:10026600000E40563FC041F040C042F039C043F056
:100276003AC044F03CDF060E3B6E000E3C6E000EAC
:10028600006E3C50005C02E13B50000819E23B5016
:100296003924E16E3C503A20E26E010E3B5C006E62
:1002A600000E3C58016E00503924E96E01503A2088
:1002B600EA6EEECFE6FF010E3B5E000E3C5ADFD73C
:1002C60039C0E1FF3AC0E2FF200EE66E3D503E1017
:1002D6001AE03B6A3C6A3B503924E96E3C503A20AE
:1002E600EA6EEE50200A03E13B4A3C2AF4D7010E9F
:1002F6003B5E000E3C5A3B503924E16E3C503A209E
:08030600E26E2D0EE66E1200FE
:10030E000FD0800E376E19D0C00E376E16D0940EE9
:10031E00376E13D0D40E376E10D0800E376E0DD0D0
:10032E003750010AEEE03750020AEEE03750030A6A
:10033E00EEE03750040AEEE0F0D73804006E375086
:10034E00002600C037F000C048F074DE2A903B6AE9
:10035E003B503924E96E000E3A20EA6EEE520BE065
:10036E003B503924E96E000E3A20EA6EEECF41F092
:0A037E0002DF3B2AEDD72A801200AF
:1003880077EC02F0326A336A190E346E356A366ACF
:1003980094809694948694880F013A973A99F4DE5B
:1003A800010E486E4ADE0C0E486E47DE010E376EAF
:1003B800010E386E1C0E396E000E3A6EA4DF34C082
:1003C80037F0000E386E2B0E396E000E3A6E2FDFA6
:1003D800020E376E010E386E2B0E396E000E3A6E15
:1003E80092DF3350000A1DE182A01BD032520BE08D
:1003F800326A010E376E010E386E150E396E000E18
:100408003A6E81DF0BD0010E326E010E376E010E8F
:10041800386E230E396E000E3A6E75DF010E336E9C
:1004280005D03350010A02E182A0336A32B002D00B
:100438008D9401D08D84325247E03550000A1BE17B
:1004480082A619D0FF0E345CD8A0342A34C037F005
:10045800000E386E2B0E396E000E3A6EE8DE020E74
:10046800376E010E386E2B0E396E000E3A6E4BDF6A
:10047800010E356E05D03550010A02E182A6356AB3
:100488003650000A1BE182A819D034500008D8A0C1
:10049800340634C037F0000E386E2B0E396E000E5D
:1004A8003A6EC5DE020E376E010E386E2B0E396EAF
:1004B800000E3A6E28DF010E366E05D03650010A5E
:1004C80002E182A8366A02D0190E346E8AD7FFD7A5
:1004EE0010EE15F0150E006E010E016ED80EF66EA2
:0E04FE00040EF76E000EF86E13EC01F0120003
:0704D8005350454E544F0044
:0704DF005350454E544F003D
:0704E60041434345534F0061
:020000040030CA
:0D000100231F3CFFBF81FF0FC00FE00F4029
:00000001FF
