:04000000F1EF01F02B
:10000800F2A405D0200E1526000E1622F294110037
:06001800000000001200D0
:10001E000F0E0C6E470E0D6E0D2EFED70C2EFCD74E
:06002E00000000001200BA
:0A003400210E0D6E0D2EFED71200F6
:10003E00086A096A100E0C6E01340836093604502F
:10004E00085E0550D8A0053C095ED8B007D0045014
:10005E0008260550D8B0053C0926D8900036013642
:06006E000C2EEAD712007F
:100074004BBE02D08A9601D08A864BBC02D08A94A9
:1000840001D08A844BBA02D08A9201D08A824BB8BA
:1000940002D08A9001D08A8029B002D08A8801D007
:1000A4008A988A8AB7DF8A9A4BB602D08A9601D098
:1000B4008A864BB402D08A9401D08A844BB202D08F
:1000C4008A9201D08A824BB002D08A9001D08A8071
:1000D40029B002D08A8801D08A988A8A9BDF8A9ABA
:0C00E40029A002D09ADF01D0A3DF120097
:0C00F000299044C04BF0BEDF29801200B4
:1000FC00486A050E485C0AE248504624E16E000E40
:10010C004720E26E200EE66E482AF3D7485046246C
:10011C00E16E000E4720E26EE66A4806485046241F
:10012C00496E000E47204A6E0A0E046E000E056ED4
:10013C0044C000F045C001F07CDF08C000F009C0ED
:10014C0001F0300E002649C0E1FF4AC0E2FF00C0BA
:10015C00E6FF0A0E046E000E056E44C000F045C0AA
:10016C0001F067DF00C044F001C045F0000E01183B
:10017C0002E1000E001801E102D04806CFD71200B0
:10018C000900F5CFE6FF0006FBE10106F9E11200DC
:10019C00939A939893909392939493968A9A8A981D
:1001AC008A968A948A928A9034DF33DF32DF8A828D
:1001BC008A808A8A2BDF8A9A2CDF8A8A27DF8A9A9E
:1001CC0028DF8A8A23DF8A9A24DF8A908A8A1EDFB4
:1001DC008A9A1FDF8A8A1ADF8A9A8A928A868A8A80
:1001EC0015DF8A9A16DF8A968A808A8A0FDF8A9AA6
:1001FC008A908A8A0BDF8A9A0CDF8A8A07DF8A9AAE
:10020C008A808A8A03DF8A9A04DF8A908A8AFEDED1
:10021C008A9A8A868A848A828A808A8AF7DE8A9A6D
:06022C00F8DE298012003B
:10023200406A416A3AC042F03BC043F0800E3B182C
:10024200006E800E005C02E1000E3A5C0BE2010ED1
:10025200406E000E416E3A500008426E3BC043F0C1
:10026200000E435642C044F043C045F03CC046F045
:100272003DC047F042DF060E3E6E000E3F6E000E9E
:10028200006E3F50005C02E13E50000819E23E5011
:100292003C24E16E3F503D20E26E010E3E5C006E5A
:1002A200000E3F58016E00503C24E96E01503D2083
:1002B200EA6EEECFE6FF010E3E5E000E3F5ADFD73A
:1002C2003CC0E1FF3DC0E2FF200EE66E405041100F
:1002D2001AE03E6A3F6A3E503C24E96E3F503D20A0
:1002E200EA6EEE50200A03E13E4A3F2AF4D7010E9D
:1002F2003E5E000E3F5A3E503C24E16E3F503D2090
:08030200E26E2D0EE66E120002
:10030A000FD0800E3A6E19D0C00E3A6E16D0940EE7
:10031A003A6E13D0D40E3A6E10D0800E3A6E0DD0CB
:10032A003A50010AEEE03A50020AEEE03A50030A65
:10033A00EEE03A50040AEEE0F0D73B04006E3A5081
:10034A00002600C03AF000C04BF08FDE29903E6ACA
:10035A003E503C24E96E000E3D20EA6EEE520BE060
:10036A003E503C24E96E000E3D20EA6EEECF44F08A
:0A037A00BADE3E2AEDD729801200FA
:100384003AC004F03BC005F004C0E9FF05C0EAFF31
:10039400EE5203E0044A052AF7D704C002F005C070
:1003A40003F0044A052A3CC000F03DC001F03C4A79
:1003B4003D2A00C0E9FF01C0EAFF02C0E1FF03C01B
:1003C400E2FFEECFE6FF02C0E9FF03C0EAFFEE5210
:0E03D40001E0E3D73AC000F03BC001F0120098
:1003E20058EC02F00A0E396E956A9694A00EF26EDF
:1003F200C70ED56ED2DE010E4B6E3BDE0C0E4B6E7F
:1004020038DE39C03AF0000E3B6E2A0E3C6E000E0A
:100412003D6E0EDF2A0E3A6E000E3B6E170E3C6EDC
:10042200000E3D6EAEDF010E3A6E010E3B6E2A0EDD
:100432003C6E000E3D6E68DF030E165C02E1E80EB4
:10044200155C29E3395000081CE2390639C03AF03C
:10045200000E3B6E2A0E3C6E000E3D6EE9DE2A0E49
:100462003A6E000E3B6E200E3C6E000E3D6E89DF32
:10047200010E3A6E010E3B6E2A0E3C6E000E3D6E70
:1004820043DF3950000AD8B48D8439C08CFFE80E9E
:0A049200155E030E165AD0D7FFD7EF
:1004B00010EE15F0140E006E010E016E9C0EF66E1D
:0E04C000040EF76E000EF86EC6EC00F012008F
:02049C0000005E
:09049E00207365636F6E64690050
:0904A700207365636F6E64690047
:020000040030CA
:0D000100231F3CFFBF81FF0FC00FE00F4029
:00000001FF
