:040000000CEF02F00F
:1000080000C015F0F2A405D0200E2E26000E2F22D7
:10001800F2949EA414D0BDA009D0BFCF33F0326AA9
:10002800BE503226000E3322BD9008D0BFCF31F02B
:10003800306ABE503026000E3122BD809E9415C015
:0400480000F01100B3
:0A004C00210E0D6E0D2EFED71200DE
:100056000F0E0C6E470E0D6E0D2EFED70C2EFCD716
:0600660000000000120082
:06006C000000000012007C
:10007200086A096A100E0C6E0134083609360450FB
:10008200085E0550D8A0053C095ED8B007D00450E0
:1000920008260550D8B0053C0926D890003601360E
:0600A2000C2EEAD712004B
:1000A800000160BF02D08A9601D08A8660BD02D066
:1000B8008A9401D08A8460BB02D08A9201D08A8255
:1000C80060B902D08A9001D08A8034B002D08A8880
:1000D80001D08A988A8AC6DF8A9A60B702D08A963F
:1000E80001D08A8660B502D08A9401D08A8460B330
:1000F80002D08A9201D08A8260B102D08A9001D05F
:100108008A8034B002D08A8801D08A988A8AAADF85
:0E0118008A9A34A002D09BDF01D094DF12003F
:100126005D6A050E5D5C0AE25D505B24E16E000EC1
:100136005C20E26E200EE66E5D2AF3D75D505B24EE
:10014600E16E000E5C20E26EE66A5D065D505B24A1
:100156005E6E000E5C205F6E0A0E046E000E056E6B
:1001660059C000F05AC001F081DF08C000F009C094
:1001760001F0300E00265EC0E1FF5FC0E2FF00C066
:10018600E6FF0A0E046E000E056E59C000F05AC056
:1001960001F06CDF00C059F001C05AF0000E0118E2
:1001A60002E1000E001801E102D05D06CFD7120071
:0C01B600349059C060F075DF34801200F6
:1001C200939A939893909392939493968A9A8A98F7
:1001D2008A968A948A928A903DDF3CDF3BDF8A824C
:1001E2008A808A8A42DF8A9A35DF8A8A3EDF8A9A41
:1001F20031DF8A8A3ADF8A9A2DDF8A908A8A35DF4E
:100202008A9A28DF8A8A31DF8A9A8A928A868A8A39
:100212002CDF8A9A1FDF8A968A808A8A26DF8A9A48
:100222008A908A8A22DF8A9A15DF8A8A1EDF8A9A50
:100232008A808A8A1ADF8A9A0DDF8A908A8A15DF73
:100242008A9A8A868A848A828A808A8A0EDF8A9A2F
:0602520001DF3480120000
:100258000900F5CFE6FF0006FBE10106F9E112000F
:100268000FD0800E4F6E19D0C00E4F6E16D0940E60
:100278004F6E13D0D40E4F6E10D0800E4F6E0DD02F
:100288004F50010AEEE04F50020AEEE04F50030AC9
:10029800EEE04F50040AEEE0F0D75004006E4F50E5
:1002A800002600C04FF000C060F0FADE3490536AB8
:1002B80053505124E96E000E5220EA6EEE520BE0C4
:1002C80053505124E96E000E5220EA6EEECF59F0D9
:0A02D8006EDF532AEDD734801200C8
:1002E2004FC004F050C005F004C0E9FF05C0EAFFAA
:1002F200EE5203E0044A052AF7D704C002F005C013
:1003020003F0044A052A51C000F052C001F0514ADC
:10031200522A00C0E9FF01C0EAFF02C0E1FF03C0A8
:10032200E2FFEECFE6FF02C0E9FF03C0EAFFEE52B2
:0E03320001E0E3D74FC000F050C001F0120010
:10034000556A566A4FC057F050C058F0800E50188A
:10035000006E800E005C02E1000E4F5C0BE2010EAD
:10036000556E000E566E4F500008576E50C058F034
:10037000000E585657C059F058C05AF051C05BF0A3
:1003800052C05CF0D0DE060E536E000E546E000EAE
:10039000006E5450005C02E15350000819E25350C3
:1003A0005124E16E54505220E26E010E535C006EF7
:1003B000000E5458016E00505124E96E0150522035
:1003C000EA6EEECFE6FF010E535E000E545ADFD701
:1003D00051C0E1FF52C0E2FF200EE66E55505610AC
:1003E0001AE0536A546A53505124E96E5450522013
:1003F000EA6EEE50200A03E1534A542AF4D7010E64
:10040000535E000E545A53505124E16E5450522002
:08041000E26E2D0EE66E1200F3
:1004180005EC03F01E0E446E456A466A476A486A50
:10042800496A4A6A4B6A4C6A4D6A4E6A956A96945A
:10043800FF0E926EF00E0F01386FBF0E946EFB0E1A
:100448003A6FE00EF26E470ED56E050EBD6E4891FE
:1004580048939D849E94130ECD6EAFDE010E00016D
:10046800606F1EDE0C0E606F1BDE8B8C000E461854
:1004780002E1000E45180CE180A00AD0D58E010ECD
:100488004D6E000E4E6E010E456E000E466E0AD081
:10049800000E461802E1010E451804E180B002D0B2
:1004A800456A466A000E481802E1000E47180CE13A
:1004B80080A20AD0D59E2E6A2F6A4D6A4E6A010E16
:1004C800476E000E486E0AD0000E481802E1010E71
:1004D800471804E180B202D0476A486A000E4A18F9
:1004E80002E1000E49180CE180A40AD0FA0E445C1F
:1004F80002E2050E4426010E496E000E4A6E0AD02D
:10050800000E4A1802E1010E491804E180B402D035
:10051800496A4A6A000E4C1802E1000E4B180CE1B9
:1005280080A60AD04450000802E2050E445E010E7F
:100538004B6E000E4C6E0AD0000E4C1802E1010EF4
:100548004B1804E180B602D04B6A4C6A030E2F5C4C
:1005580002E1E80E2E5C11E34450000804E24D501D
:100568004E10D8A444064450000AD8B48D8444C020
:100578008CFFE80E2E5E030E2F5A3250305C016E4F
:1005880033503158026E0250030802E10150E80866
:100598000CE24D6A4E6A010E4F6E010E506E160E39
:1005A800516E000E526E5CDE1BD044C04FF0000E40
:1005B800506E350E516E000E526EBEDE350E4F6E09
:1005C800000E506E250E516E000E526E86DE010E24
:1005D8004F6E010E506E350E516E000E526E40DE9B
:0405E80045D7FFD71D
:10060A0010EE16F01E0E006E010E016EEC0EF66E66
:0E061A00050EF76E000EF86E2CEC01F01200CB
:0F05EC0020202041626F7274656420202020005F
:0905FB00207365636F6E646900F2
:020604000000F4
:020606000000F2
:020608000000F0
:020000040030CA
:0D000100231F3CFFBF81FF0FC00FE00F4029
:00000001FF
