:0400000017EF02F004
:100008009EAC05D0C4CF21F0010E156E9E9C110048
:06001800000000001200D0
:10001E000F0E0C6E470E0D6E0D2EFED70C2EFCD74E
:06002E00000000001200BA
:0A003400210E0D6E0D2EFED71200F6
:10003E00086A096A100E0C6E01340836093604502F
:10004E00085E0550D8A0053C095ED8B007D0045014
:10005E0008260550D8B0053C0926D8900036013642
:06006E000C2EEAD712007F
:100074004BBE02D08A9601D08A864BBC02D08A94A9
:1000840001D08A844BBA02D08A9201D08A824BB8BA
:1000940002D08A9001D08A8020B002D08A8801D010
:1000A4008A988A8AB7DF8A9A4BB602D08A9601D098
:1000B4008A864BB402D08A9401D08A844BB202D08F
:1000C4008A9201D08A824BB002D08A9001D08A8071
:1000D40020B002D08A8801D08A988A8A9BDF8A9AC3
:0C00E40020A002D09ADF01D0A3DF1200A0
:1000F000486A050E485C0AE248504624E16E000E4C
:100100004720E26E200EE66E482AF3D74850462478
:10011000E16E000E4720E26EE66A4806485046242B
:10012000496E000E47204A6E0A0E046E000E056EE0
:1001300044C000F045C001F082DF08C000F009C0F3
:1001400001F0300E002649C0E1FF4AC0E2FF00C0C6
:10015000E6FF0A0E046E000E056E44C000F045C0B6
:1001600001F06DDF00C044F001C045F0000E011841
:1001700002E1000E001801E102D04806CFD71200BC
:0C018000209044C04BF076DF208012007D
:10018C00406A416A3AC042F03BC043F0800E3B18D3
:10019C00006E800E005C02E1000E3A5C0BE2010E78
:1001AC00406E000E416E3A500008426E3BC043F068
:1001BC00000E435642C044F043C045F03CC046F0EC
:1001CC003DC047F08FDF060E3E6E000E3F6E000EF8
:1001DC00006E3F50005C02E13E50000819E23E50B8
:1001EC003C24E16E3F503D20E26E010E3E5C006E01
:1001FC00000E3F58016E00503C24E96E01503D202A
:10020C00EA6EEECFE6FF010E3E5E000E3F5ADFD7E0
:10021C003CC0E1FF3DC0E2FF200EE66E40504110B5
:10022C001AE03E6A3F6A3E503C24E96E3F503D2046
:10023C00EA6EEE50200A03E13E4A3F2AF4D7010E43
:10024C003E5E000E3F5A3E503C24E16E3F503D2036
:08025C00E26E2D0EE66E1200A9
:100264000900F5CFE6FF0006FBE10106F9E1120003
:10027400939A939893909392939493968A9A8A9844
:100284008A968A948A928A90C8DEC7DEC6DE8A82FB
:100294008A808A8ABFDE8A9AC0DE8A8ABBDE8A9A0C
:1002A400BCDE8A8AB7DE8A9AB8DE8A908A8AB2DE8F
:1002B4008A9AB3DE8A8AAEDE8A9A8A928A868A8A81
:1002C400A9DE8A9AAADE8A968A808A8AA3DE8A9A14
:1002D4008A908A8A9FDE8A9AA0DE8A8A9BDE8A9A1C
:1002E4008A808A8A97DE8A9A98DE8A908A8A92DE3F
:1002F4008A9A8A868A848A828A808A8A8BDE8A9A01
:060304008CDE20801200D7
:10030A000FD0800E3A6E19D0C00E3A6E16D0940EE7
:10031A003A6E13D0D40E3A6E10D0800E3A6E0DD0CB
:10032A003A50010AEEE03A50020AEEE03A50030A65
:10033A00EEE03A50040AEEE0F0D73B04006E3A5081
:10034A00002600C03AF000C04BF08FDE20903E6AD3
:10035A003E503C24E96E000E3D20EA6EEE520BE060
:10036A003E503C24E96E000E3D20EA6EEECF44F08A
:0A037A0002DF3E2AEDD720801200BA
:100384003AC004F03BC005F004C0E9FF05C0EAFF31
:10039400EE5203E0044A052AF7D704C002F005C070
:1003A40003F0044A052A3CC000F03DC001F03C4A79
:1003B4003D2A00C0E9FF01C0EAFF02C0E1FF03C01B
:1003C400E2FFEECFE6FF02C0E9FF03C0EAFFEE5210
:0E03D40001E0E3D73AC000F03BC001F0120098
:1003E2003AC004F03BC005F004C002F005C003F0BF
:1003F200044A052A3CC000F03DC001F03C4A3D2AB7
:1004020000C0E9FF01C0EAFF02C0E1FF03C0E2FF52
:10041200EECFE6FF02C0E9FF03C0EAFFEE5201E0C1
:0C042200E3D73AC000F03BC001F012002C
:10042E00156A200E166E2B0E176E200E186E200EED
:10043E00196E200E1A6E390E1B6E200E1C6E3D0E9E
:10044E001D6E200E1E6E1F6AFF0E926EFF0E0F01A6
:10045E00386F010EC26E210EC06EC00EF26E9D8CF4
:10046E009E9C01DF010E4B6EFEDD0C0E4B6EFBDD16
:10047E00C28215524AE021C03AF0000E3B6E220EA7
:10048E003C6E000E3D6E7BDE25C022F026C023F0B2
:10049E0027C024F0256A290E3A6E000E3B6E220EFE
:1004AE003C6E000E3D6E96DF290E3A6E000E3B6ED0
:1004BE00160E3C6E000E3D6E5EDF090E21243A6E66
:1004CE003B6A000E3B22220E3C6E000E3D6E57DE46
:1004DE00200E226E25C023F026C024F027C025F062
:1004EE00266A290E3A6E000E3B6E220E3C6E000EF0
:1004FE003D6E41DF010E3A6E010E3B6E290E3C6ED3
:0E050E00000E3D6EFBDE156AC282B3D7FFD72A
:020000040030CA
:0D000100231F3CFFBF81FF0FC00FE00F4029
:00000001FF
