:040000001EEF02F0FD
:100008009EAC05D0C4CF20F0010E1F6E9E9CF2A4BA
:0E00180005D0200E1D26000E1E22F2941100AF
:06002600000000001200C2
:10002C000F0E0C6E470E0D6E0D2EFED70C2EFCD740
:06003C00000000001200AC
:0A004200210E0D6E0D2EFED71200E8
:10004C00086A096A100E0C6E013408360936045021
:10005C00085E0550D8A0053C095ED8B007D0045006
:10006C0008260550D8B0053C0926D8900036013634
:06007C000C2EEAD7120071
:1000820056BE02D08A9601D08A8656BC02D08A9485
:1000920001D08A8456BA02D08A9201D08A8256B896
:1000A20002D08A9001D08A8021B002D08A8801D001
:1000B2008A988A8AB7DF8A9A56B602D08A9601D07F
:1000C2008A8656B402D08A9401D08A8456B202D06B
:1000D2008A9201D08A8256B002D08A9001D08A8058
:1000E20021B002D08A8801D08A988A8A9BDF8A9AB4
:0C00F20021A002D09ADF01D0A3DF120091
:1000FE00536A050E535C0AE253505124E16E000E12
:10010E005220E26E200EE66E532AF3D7535051243E
:10011E00E16E000E5220E26EE66A530653505124F1
:10012E00546E000E5220556E0A0E046E000E056EB1
:10013E004FC000F050C001F082DF08C000F009C0CF
:10014E0001F0300E002654C0E1FF55C0E2FF00C0A2
:10015E00E6FF0A0E046E000E056E4FC000F050C092
:10016E0001F06DDF00C04FF001C050F0000E01181D
:10017E0002E1000E001801E102D05306CFD71200A3
:0C018E0021904FC056F076DF2180120057
:10019A004B6A4C6A45C04DF046C04EF0800E461878
:1001AA00006E800E005C02E1000E455C0BE2010E5F
:1001BA004B6E000E4C6E455000084D6E46C04EF018
:1001CA00000E4E564DC04FF04EC050F047C051F091
:1001DA0048C052F08FDF060E496E000E4A6E000EBE
:1001EA00006E4A50005C02E14950000819E2495089
:1001FA004724E16E4A504820E26E010E495C006EC7
:10020A00000E4A58016E00504724E96E01504820FA
:10021A00EA6EEECFE6FF010E495E000E4A5ADFD7BC
:10022A0047C0E1FF48C0E2FF200EE66E4B504C107B
:10023A001AE0496A4A6A49504724E96E4A504820F6
:10024A00EA6EEE50200A03E1494A4A2AF4D7010E1F
:10025A00495E000E4A5A49504724E16E4A504820E6
:08026A00E26E2D0EE66E12009B
:100272000900F5CFE6FF0006FBE10106F9E11200F5
:10028200939A939893909392939493968A9A8A9836
:100292008A968A948A928A90C8DEC7DEC6DE8A82ED
:1002A2008A808A8ABFDE8A9AC0DE8A8ABBDE8A9AFE
:1002B200BCDE8A8AB7DE8A9AB8DE8A908A8AB2DE81
:1002C2008A9AB3DE8A8AAEDE8A9A8A928A868A8A73
:1002D200A9DE8A9AAADE8A968A808A8AA3DE8A9A06
:1002E2008A908A8A9FDE8A9AA0DE8A8A9BDE8A9A0E
:1002F2008A808A8A97DE8A9A98DE8A908A8A92DE31
:100302008A9A8A868A848A828A808A8A8BDE8A9AF2
:060312008CDE21801200C8
:100318000FD0800E456E19D0C00E456E16D0940EC3
:10032800456E13D0D40E456E10D0800E456E0DD09C
:100338004550010AEEE04550020AEEE04550030A36
:10034800EEE04550040AEEE0F0D74604006E455052
:10035800002600C045F000C056F08FDE2190496AA3
:1003680049504724E96E000E4820EA6EEE520BE031
:1003780049504724E96E000E4820EA6EEECF4FF050
:0A03880002DF492AEDD721801200A0
:1003920045C004F046C005F004C0E9FF05C0EAFF0D
:1003A200EE5203E0044A052AF7D704C002F005C062
:1003B20003F0044A052A47C000F048C001F0474A4A
:1003C200482A00C0E9FF01C0EAFF02C0E1FF03C002
:1003D200E2FFEECFE6FF02C0E9FF03C0EAFFEE5202
:0E03E20001E0E3D745C000F046C001F0120074
:1003F00045C004F046C005F004C002F005C003F09B
:10040000044A052A47C000F048C001F0474A482A7C
:1004100000C0E9FF01C0EAFF02C0E1FF03C0E2FF44
:10042000EECFE6FF02C0E9FF03C0EAFFEE5201E0B3
:0C043000E3D745C000F046C001F0120008
:10043C00200E156E2B0E166E200E176E186A200EDF
:10044C00196E3D0E1A6E200E1B6E1C6A1D6A1E6AFA
:10045C001F6A3A6A3B6A3C6A3D6A3E6A3F6A406A76
:10046C00416A426A436A446AFF0E926EFF0E0F01A4
:10047C00386F946AFF0E3A6FFF0E956E3B6B010E50
:10048C00C26E210EC06EE00EF26E9D8C9E9CC70E4D
:10049C00D56E968448854997FF0E526F0C0E546F9B
:1004AC00060E516F9694E7DE010E566EE4DD0C0ECF
:1004BC00566EE1DDC2828B6A426A080E425C6AE2C9
:1004CC003A0EE96E000EEA6E4250E926D8B0EA2ADE
:1004DC00EE50000A30E142C000F0010E036E000E37
:1004EC00046E005005E0033603900436FF0FFAD774
:1004FC0003508314016E000E0414026E0250041893
:10050C0002E10350011817E142C001F0010E006E28
:10051C00015004E000360090FF0FFBD700508B1AFF
:10052C003A0EE16E000EE26E4250E126D8B0E22A9D
:10053C00010EE66E2DD03A0EE96E000EEA6E4250B8
:10054C00E926D8B0EA2AEE50010A22E142C002F0B4
:10055C00010E006E000E016E025005E00036009098
:10056C000136FF0FFAD700508314026E000E0114EF
:10057C00036E000E031802E1000E021809E13A0E98
:10058C00E16E000EE26E4250E126D8B0E22AE66A35
:10059C00422A93D7010E1E5C02E1F40E1D5C08E3A7
:1005AC001F5206E01F6AF40E1D5E010E1E5AC28217
:1005BC0020C045F0000E466E220E476E000E486EAF
:1005CC00E6DD25C022F026C023F027C024F0256AE2
:1005DC00290E456E000E466E220E476E000E486EBA
:1005EC0001DF290E456E000E466E150E476E000E8D
:1005FC00486EC9DE8BCF45F0000E466E220E476E5C
:10060C00000E486EC4DD25C022F026C023F027C0A2
:10061C0024F0256A290E456E000E466E220E476E9A
:10062C00000E486EB0DE290E456E000E466E190E99
:10063C00476E000E486EA7DE8B502024006E016AB8
:10064C00000E012200C043F001C044F000C045F090
:10065C0001C046F0220E476E000E486E98DD200E4B
:10066C00226E25C023F026C024F027C025F0266A70
:10067C00290E456E000E466E220E476E000E486E19
:10068C0082DE010E456E010E466E290E476E000E7F
:10069C00486E3CDE43C000F044C001F00132003231
:0A06AC00019E00C055FF08D7FFD7DC
:020000040030CA
:0D000100231F3CFFBF81FF0FC00FE00F4029
:00000001FF
