:10000000F5EF00F00000000000EF00F0000000003D
:0A0010000000000000000000F3D71C
:06001C00000000001200CC
:100022000F0E0C6E470E0D6E0D2EFED70C2EFCD74A
:06003200000000001200B6
:0A003800210E0D6E0D2EFED71200F2
:1000420033BE02D08A9601D08A8633BC02D08A940B
:1000520001D08A8433BA02D08A9201D08A8233B81C
:1000620002D08A9001D08A802AB002D08A8801D038
:100072008A988A8AD2DF8A9A33B602D08A9601D0C7
:100082008A8633B402D08A9401D08A8433B202D0F1
:100092008A9201D08A8233B002D08A9001D08A80BB
:1000A2002AB002D08A8801D08A988A8AB6DF8A9AD0
:0C00B2002AA002D0B5DF01D0BEDF120092
:0C00BE002A9032C033F0BEDF2A8012000E
:1000CA000900F5CFE6FF0006FBE10106F9E112009F
:1000DA00939A939893909392939493968A9A8A98E0
:1000EA008A968A948A928A9097DF96DF95DF8A8227
:1000FA008A808A8A8EDF8A9A8FDF8A8A8ADF8A9A38
:10010A008BDF8A8A86DF8A9A87DF8A908A8A81DFEA
:10011A008A9A82DF8A8A7DDF8A9A8A928A868A8A7C
:10012A0078DF8A9A79DF8A968A808A8A72DF8A9A3F
:10013A008A908A8A6EDF8A9A6FDF8A8A6ADF8A9A47
:10014A008A808A8A66DF8A9A67DF8A908A8A61DF6A
:10015A008A9A8A868A848A828A808A8A5ADF8A9ACC
:06016A005BDF2A80120099
:100170000FD0800E2D6E19D0C00E2D6E16D0940E9D
:100180002D6E13D0D40E2D6E10D0800E2D6E0DD08E
:100190002D50010AEEE02D50020AEEE02D50030A28
:1001A000EEE02D50040AEEE0F0D72E04006E2D5044
:1001B000002600C02DF000C033F043DF2A90316AE2
:1001C00031502F24E96E000E3020EA6EEE520BE023
:1001D00031502F24E96E000E3020EA6EEECF32F05F
:0A01E0006EDF312AEDD72A801200ED
:1001EA0048EC01F02B6A2C6AFF0E946EFE0E0F018A
:1001FA003A6FFB0E966EEF0E926E6ADF010E336E49
:10020A001BDF0C0E336E18DF010E2D6E010E2E6EE3
:10021A00230E2F6E000E306EA6DF2C50000A21E14D
:10022A0082A01FD02B520DE02B6A89988D94010E63
:10023A002D6E010E2E6E150E2F6E000E306E93DF90
:10024A000DD0010E2B6E89888D84010E2D6E010E44
:10025A002E6E1C0E2F6E000E306E85DF010E2C6E78
:10026A0005D02C50010A02E182A02C6AD6D7FFD70A
:1002900010EE15F0150E006E010E016E7A0EF66E60
:0E02A000020EF76E000EF86E65EC00F0120014
:07027A005350454E544F00A4
:0702810041434345534F00C8
:070288005350454E544F0096
:020000040030CA
:0D000100231F3CFFBF81FF0FC00FE00F4029
:00000001FF
