:0400000022EF02F0F9
:10000800F2A405D0200E1B26000E1C22F2949EACF2
:0E00180005D0C4CF15F0000E166E9E9C110090
:0A002600210E0D6E0D2EFED7120004
:100030000F0E0C6E470E0D6E0D2EFED70C2EFCD73C
:06004000000000001200A8
:06004600000000001200A2
:10004C00086A096A100E0C6E013408360936045021
:10005C00085E0550D8A0053C095ED8B007D0045006
:10006C0008260550D8B0053C0926D8900036013634
:06007C000C2EEAD7120071
:10008200000167BF02D08A9601D08A8667BD02D07E
:100092008A9401D08A8467BB02D08A9201D08A8274
:1000A20067B902D08A9001D08A8032B002D08A88A1
:1000B20001D08A988A8AC6DF8A9A67B702D08A965E
:1000C20001D08A8667B502D08A9401D08A8467B348
:1000D20002D08A9201D08A8267B102D08A9001D07E
:1000E2008A8032B002D08A8801D08A988A8AAADFAE
:0E00F2008A9A32A002D09BDF01D094DF120068
:0C010000329060C067F0BDDF328012005A
:10010C000001606B050E605D0AE260516325E16ED3
:10011C00000E6421E26E200EE66E602BF3D7605168
:10012C006325E16E000E6421E26EE66A60076051A1
:10013C006325656F000E6421666F0A0E046E000E57
:10014C00056E61C000F062C001F07ADF08C000F0FB
:10015C0009C001F0300E002665C0E1FF66C0E2FF69
:10016C0000C0E6FF0A0E046E000E056E61C000F0C2
:10017C0062C001F065DF00C061F001C062F0000EEA
:10018C00011802E1000E001801E102D06007CFD780
:02019C0012004F
:10019E000FD0800E566E19D0C00E566E16D0940E1D
:1001AE00566E13D0D40E566E10D0800E566E0DD0E5
:1001BE005650010AEEE05650020AEEE05650030A7F
:1001CE00EEE05650040AEEE0F0D75704006E56509B
:1001DE00002600C056F000C067F04CDF32905A6A1D
:1001EE005A505824E96E000E5920EA6EEE520BE07A
:1001FE005A505824E96E000E5920EA6EEECF60F088
:0A020E0078DF5A2AEDD73280120083
:100218000900F5CFE6FF0006FBE10106F9E112004F
:10022800939A939893909392939493968A9A8A9890
:100238008A968A948A928A90F7DEF6DEF5DE8A82BA
:100248008A808A8AFCDE8A9AEFDE8A8AF8DE8A9AAF
:10025800EBDE8A8AF4DE8A9AE7DE8A908A8AEFDE03
:100268008A9AE2DE8A8AEBDE8A9A8A928A868A8A61
:10027800E6DE8A9AD9DE8A968A808A8AE0DE8A9AB7
:100288008A908A8ADCDE8A9ACFDE8A8AD8DE8A9ABF
:100298008A808A8AD4DE8A9AC7DE8A908A8ACFDEE2
:1002A8008A9A8A868A848A828A808A8AC8DE8A9A10
:0602B800BBDE32801200E3
:1002BE000B6A0A6A096A00500402F4CF09F0F3CF00
:1002CE0008F001500502F4CF0BF0F3CF0AF0005006
:1002DE000502F3500926F4500A22E86A0B22015057
:1002EE000402F3500926F4500A22E86A0B2208C0D1
:1002FE0000F009C001F00AC002F00BC003F01200BA
:10030E0056C004F057C005F004C0E9FF05C0EAFF6F
:10031E00EE5203E0044A052AF7D704C002F005C0E6
:10032E0003F0044A052A58C000F059C001F0584A9B
:10033E00592A00C0E9FF01C0EAFF02C0E1FF03C075
:10034E00E2FFEECFE6FF02C0E9FF03C0EAFFEE5286
:0E035E0001E0E3D756C000F057C001F01200D6
:10036C005C6A5D6A56C05EF057C05FF0800E57182D
:10037C00006E800E005C02E1000E565C0BE2010E7A
:10038C005C6E000E5D6E565000085E6E57C05FF0DE
:10039C00000E5F565EC061F05FC062F058C063F043
:1003AC0059C064F0ADDE060E5A6E000E5B6E000E88
:1003BC00006E5B50005C02E15A50000819E25A5082
:1003CC005824E16E5B505920E26E010E5A5C006EAF
:1003DC00000E5B58016E00505824E96E01505920F4
:1003EC00EA6EEECFE6FF010E5A5E000E5B5ADFD7C7
:1003FC0058C0E1FF59C0E2FF200EE66E5C505D1064
:10040C001AE05A6A5B6A5A505824E96E5B505920BC
:10041C00EA6EEE50200A03E15A4A5B2AF4D7010E29
:10042C005A5E000E5B5A5A505824E16E5B505920AC
:08043C00E26E2D0EE66E1200C7
:1004440086EC03F04B6A4C6A4D6A4E6A4F6AFF0EA3
:10045400946EE60E0F013A6FEF0E926EFF0E386F38
:10046400956A968448854897080E526F010E546F1A
:10047400060E516F9694E00EF26EC70ED56E010E05
:10048400C26E210EC06E9D8C9E9CCCDE010E0001BE
:10049400676FF5DD0C0E676FF2DD010E566E010E0F
:1004A400576E1D0E586E000E596E77DE4C50000AC2
:1004B40024E182A022D04B520EE04B6A89984D6A07
:1004C4008C6A010E566E010E576E240E586E000E85
:1004D400596E63DE0FD0010E4B6E8988010E4D6E8E
:1004E400C282010E566E010E576E2B0E586E000E10
:1004F400596E53DE010E4C6E05D04C50010A02E1D8
:1005040082A04C6A4B522EE04E50000A09E182A6AA
:1005140007D0080E4D5CD8A04D2A010E4E6E05D0B2
:100524004E50010A02E182A64E6A4F50000A09E1C8
:1005340082A807D04D500108D8A04D06010E4F6E79
:1005440005D04F50010A02E182A84F6A4DC001F064
:10055400010E006E015004E000360090FF0FFBD73F
:1005640000048C6E4DC055FF010E1C5C02E12C0E84
:100574001B5CD8A0B8D015C000F016C001F0140E52
:10058400046E000E056E99DE00C050F001C051F0FB
:1005940050C015F051C016F0E80E046E030E056E3F
:1005A40050C000F051C001F04FDD08C000F009C098
:1005B40001F000C054F001C055F054C017F055C00C
:1005C40018F0E80E046E030E056E50C000F051C022
:1005D40001F03ADD00C002F001C003F002360290DF
:1005E40003360236029003360236029003360A0EB0
:1005F4000224506E000E0320516E50C015F051C0FD
:1006040016F054C052F055C053F05236529053363F
:1006140052365290533652365290533652C017F0D7
:1006240053C018F0E80E046E030E056E52C000F0BD
:1006340053C001F009DD005050260150512250C032
:1006440015F051C016F0E80E046E030E056E52C08C
:1006540000F053C001F0F8DC08C000F009C001F05C
:10066400640E046E000E056EEFDC00C017F001C0CE
:1006740018F050C056F051C057F0330E586E000EAB
:10068400596E72DE37C03AF038C03BF03C6A3A0E1D
:10069400566E000E576E190E586E000E596E35DEEA
:1006A40017C056F018C057F0330E586E000E596E2E
:1006B4005BDE38C033F0346A3A0E566E000E576E65
:1006C400330E586E000E596E20DE020E566E010E69
:1006D400576E3A0E586E000E596E5FDD2C0E1B5E7F
:0A06E400010E1C5AC282E2D6FFD7B5
:10070C0010EE15F01D0E006E010E016EEE0EF66E63
:0E071C00060EF76E000EF86E0CEC01F01200E7
:0206EE0000000A
:0206F000000008
:0206F2002C00DA
:0206F400000004
:0706F6005350454E544F0024
:0706FD005350454E544F001D
:0707040041434345534F0040
:020000040030CA
:0D000100231F3CFFBF81FF0FC00FE00F4029
:00000001FF
